:1000000071C000008FC000008DC000008BC00000D8
:1000100089C0000087C0000085C0000083C00000C8
:1000200081C000007FC000007DC000007BC00000D8
:1000300079C0000077C0000075C0000073C00000E8
:1000400071C000005CC200006DC000006BC0000009
:1000500069C0000067C0000065C0000063C0000008
:1000600061C000005FC000005DC000005BC0000018
:1000700059C0000057C0000055C0000053C0000028
:1000800051C000004FC000004DC000004BC0000038
:1000900049C0000047C0000045C0000043C0000048
:1000A00041C000003FC000003DC000003BC0000058
:1000B00039C0000037C0000035C0000033C0000068
:1000C00031C000002FC000002DC000002BC0000078
:1000D00029C0000027C0000025C0000023C0000088
:1000E00021C0000011241FBECFEFD1E2DEBFCDBF83
:1000F00000E00CBF12E0A0E0B2E0E2E7F0E200E0D6
:100100000BBF02C007900D92A83BB107D9F726E0BC
:10011000A8EBB2E001C01D92AF31B207E1F703D006
:100120000C9437106DCF1092C50080E18093C4000D
:1001300082E08093C00088E18093C10086E08093D4
:10014000C20088E48093B8001092B90084E08093E4
:10015000BC00BED1A8D3FECF94EA9093BC0090918E
:10016000BC009923E4F79EEA9093BB0094E8909337
:10017000BC009091BC009923E4F79091B900987F5E
:10018000983121F084E98093BC0008958093BB00EE
:1001900084E88093BC008091BC008823E4F78091C0
:1001A000B900887F883221F084E98093BC000895EB
:1001B0006093BB0084E88093BC008091BC008823DE
:1001C000E4F78091B900887F883221F084E9809338
:1001D000BC00089584E98093BC00089594EA90934C
:1001E000BC009091BC009923E4F79EEA9093BB0079
:1001F00094E89093BC009091BC009923E4F790910F
:10020000B900987F983129F084E98093BC008FEF82
:1002100008958093BB0084E88093BC008091BC006B
:100220008823E4F78091B900887F883229F084E937
:100230008093BC008FEF089584EA8093BC00809186
:10024000BC008823E4F78FEA8093BB0084E88093A6
:10025000BC008091BC008823E4F78091B900887FBE
:10026000803429F084E98093BC008FEF089584E8FE
:100270008093BC008091BC008823E4F78091BB0090
:1002800094E99093BC000895DC0184EA8093BC005B
:100290008091BC008823E4F78EEA8093BB0084E859
:1002A0008093BC008091BC008823E4F78091B90062
:1002B00087E08093BB0084E88093BC009091BC00F1
:1002C0009923E4F78091B90084EA8093BC0090916F
:1002D000BC009923E4F78FEA8093BB0084E8809305
:1002E000BC009091BC009923E4F78091B90020E014
:1002F00025C0E22FF0E0462F50E041505109E417AD
:10030000F50774F4FD01E20FF11D84EC8093BC004D
:100310009091BC009923E4F78091BB0080830DC0CD
:10032000FD01E20FF11D84E88093BC009091BC00B8
:100330009923E4F78091BB0080832F5F2617C8F2D2
:1003400084E98093BC0008958FEF48DF91E0853108
:1003500009F090E0892F089560E489E0FDDE2FEF39
:1003600081EE94E0215080409040E1F700C0000011
:100370000895EADF811116C0E0E0F2E007C031968F
:100380008091C00085FFFCCF9093C60090819111B1
:10039000F6CFFFCF31968091C00085FFFCCF9093C0
:1003A000C60002C0E4E1F2E090819111F3CF08951C
:1003B00060E084E0D1DE60E085E0CEDE60E086E0F3
:1003C000CBCE0895FF920F931F93CF93DF93F82E18
:1003D000162FD42FC22FC0DF612F606188E0BCDEF2
:1003E00063E089E0B9DE602F6D2B6C2B8AE0B4DE10
:1003F0006F2D8CE0B1DE6F2D8DE0AEDE61E281E12C
:10040000ABDE60E082E1A8DED3DFDF91CF911F9108
:100410000F91FF90089586E0E1CE089584E0DECE4E
:100420000895EF92FF920F931F93CF93DF9300D025
:1004300000D0CDB7DEB77C018B0166E0CE0101961E
:1004400023DF898190E0A0E0B0E0BC01552744277C
:100450009A81892F90E0A0E0B0E0BA2FA92F982FC1
:100460008827842B952BA62BB72B2B81822BA3704F
:10047000BB27F70180839183A283B3838C8190E0B3
:10048000A0E0B0E0BC01552744279D81892F90E072
:10049000A0E0B0E0BA2FA92F982F8827842B952BA6
:1004A000A62BB72B2E81822BA370BB27F80180834C
:1004B0009183A283B38326960FB6F894DEBF0FBE56
:1004C000CDBFDF91CF911F910F91FF90EF900895D5
:1004D0008BE08093810089EF90E090938900809376
:1004E000880082E080936F00789408956091B9024B
:1004F0007091BA028091BB029091BC0208951F9244
:100500000F920FB60F9211248F939F93AF93BF93C7
:100510008091B9029091BA02A091BB02B091BC0245
:100520000196A11DB11D8093B9029093BA02A093C8
:10053000BB02B093BC02BF91AF919F918F910F907E
:100540000FBE0F901F9018954F925F926F927F92FF
:100550008F929F92AF92BF92CF92DF92EF92FF92D3
:100560000F931F93CF93DF93CDB7DEB72C970FB6C2
:10057000F894DEBF0FBECDBF80E090E0C12CD12C3F
:100580007601812C912C54010F2EFFE34F2EF2E4C3
:100590005F2EFFE06F2E712CF02D1D821E821F82B8
:1005A00018862FE332E44FE050E029873A874B87E3
:1005B0005C8719821A821B821C824DC0FC01EE0FDF
:1005C000FF1FEE0FFF1FE150FD4F008111812281BF
:1005D000338149815A816B817C81401751076207C1
:1005E000730720F409831A832B833C8349855A853A
:1005F0006B857C85041715072607370720F40987C4
:100600001A872B873C87800E911EA21EB31EFC0109
:10061000EE0FFF1FEE0FFF1FE157FB4F008111810F
:10062000228133814D815E816F817885401751072A
:100630006207730720F40D831E832F833887041508
:1006400015052605370510F428013901C00ED11E05
:10065000E21EF31E0196843691050CF4AFCF69813A
:100660007A818B819C8129853A854B855C85621BCB
:10067000730B840B950B0E94D00B69837A838B8359
:100680009C836D817E818F819885641975098609A7
:1006900097090E94D00B2B013C01C501B4010E94B7
:1006A000D00B20E030E048EC52E4E1D74B015C0194
:1006B000C701B6010E94D00B20E030E048EC52E4C4
:1006C000D6D76B017C0120E030E0A901C501B4015F
:1006D000CAD7882309F470C020E030E0A901C7011F
:1006E000B601C1D7882309F467C020E030E0A90132
:1006F00069817A818B819C81B6D7882309F45CC09B
:10070000A7019601C301B201B2D76B017C01A5011B
:10071000940169817A818B819C81A9D74B015C010D
:1007200020E030E0A9019FD7882309F445C0A50146
:100730009401C701B6019BD720E030E048E851E4BE
:100740000E94860C9B01AC0160E070E080ED92E4B9
:1007500025D76093BD027093BE028093BF02909331
:10076000C00220E030E048EC52E40E94820C1816EF
:1007700064F480E090E0A8ECB2E48093BD02909332
:10078000BE02A093BF02B093C0026091BD027091FF
:10079000BE028091BF029091C00220E030E04CE8A0
:1007A00052E461D7882344F41092BD021092BE0235
:1007B0001092BF021092C0022C960FB6F894DEBFC2
:1007C0000FBECDBFDF91CF911F910F91FF90EF90A2
:1007D000DF90CF90BF90AF909F908F907F906F9061
:1007E0005F904F9008951092E2021092E3021092EF
:1007F000E4021092E5021092E1021092E0021092DF
:10080000DF021092DE021092DA021092DB021092E6
:10081000DC021092DD021092E6021092BD021092EC
:10082000BE021092BF021092C0021092C302109238
:10083000C2021092C10280E006C0E82FF0E0E95148
:10084000FD4F10828F5F8430C0F320E030E015C090
:10085000C901880F991F880F991FFC01E150FD4FB6
:100860001082118212821382FC01E157FB4F108229
:100870001182128213822F5F3F4F2436310544F3D9
:1008800080E090E00CC0FC01EE0FFF1FEE0FFF1F99
:10089000E551FD4F1082118212821382019685303C
:1008A00091058CF30895CF93DF93CDB7DEB7E29730
:1008B0000FB6F894DEBF0FBECDBF5BDD00E223E0D4
:1008C00044E060E488E27EDD6FE18CE045DC68E2D4
:1008D0008DE042DC2FEF37EA41E6215030404040C6
:1008E000E1F700C00000E0E2F2E007C0319690912D
:1008F000C00095FFFCCF8093C60080818111F6CFA8
:1009000072DF89DD182F8ADD181307C08FE99FE099
:100910000197F1F700C00000F4CFBE016B5E7F4F7E
:10092000CE0149967EDD4D895E896F89788D409331
:10093000D6025093D7026093D8027093D902498CA3
:1009400049A65A8C5AA62B8C3C8C403523EC520776
:10095000610571054CF018C031968091C00085FF8B
:10096000FCCF9093C60002C0EFE2F2E090819111BB
:10097000F3CF39DF3FEF49E658E131504040504076
:10098000E1F700C00000BDCF8091C8029091C9027C
:10099000FC01EE0FFF1FEE0FFF1FE551FD4F4083DF
:1009A000518362837383019665E070E00E94E90CD5
:1009B0009093C9028093C8021092C4021092C5029B
:1009C0001092C6021092C70220E030E021C0F90167
:1009D000EE0FFF1FEE0FFF1FE551FD4F808191814C
:1009E000A281B3814091C4025091C5026091C602B8
:1009F0007091C702840F951FA61FB71F8093C40272
:100A00009093C502A093C602B093C7022F5F3F4FD9
:100A100025303105E4F26091C4027091C5028091E5
:100A2000C6029091C70225E030E040E050E00E940D
:100A30001E0D69017A012093C4023093C5024093D0
:100A4000C6025093C7028091D2029091D302A09126
:100A5000D402B091D502BA01A901481B590B6A0B07
:100A60007B0B4093CE025093CF026093D0027093E1
:100A7000D1028091CA029091CB02A091CC02B09198
:100A8000CD024597A105B1050CF4A3C04C3E5F4FC4
:100A90006F4F7F4F0CF09DC091EAC91696E8D906BA
:100AA00091E0E906F1040CF494C020DD6B017C01B7
:100AB0000091DA021091DB022091DC023091DD021C
:100AC000601B710B820B930B4B015C01AFE58A1A23
:100AD000A1E09A0AA108B108B5E68B16B8E09B061A
:100AE000A104B10408F06DC0012B022B032B09F403
:100AF00068C056D69B01AC0160E070E68AE697E4D8
:100B0000B6D54B015C016093E2027093E3028093DF
:100B1000E4029093E50220E030E040E252E4F2D6B5
:100B200088230CF44EC020E030E044E353E4C501D8
:100B3000B40199D518160CF444C00091E60277244C
:100B40007394700E10E0C501B401FED5F801E951AF
:100B5000FD4F6083872D83708093E6021092E1023F
:100B60001092E00280E060E070E014C0E82FF0E056
:100B7000E951FD4F9081992361F02091E00230917D
:100B8000E102290F311D3093E1022093E0026F5FF3
:100B90007F4F8F5F843050F3161617064CF4809108
:100BA000E0029091E10215D77093E1026093E002B8
:100BB0008091DE029091DF0201969093DF02809394
:100BC000DE02C092DA02D092DB02E092DC02F09206
:100BD000DD028091CE029091CF02A091D002B0911F
:100BE000D1028093CA029093CB02A093CC02B0931F
:100BF000CD028091C4029091C502A091C602B0912D
:100C0000C7028093D2029093D302A093D402B093F0
:100C1000D5028091C2029091C3029C01220F331F22
:100C2000220F331FF901E150FD4F4D895E896F8915
:100C3000788D4083518362837383F901E157FB4FC1
:100C4000498D5A8D6B8D7C8D408351836283738374
:100C500001969093C3028093C202843691053CF0C2
:100C60001092C3021092C20281E08093C10280916F
:100C7000C102882331F08091DE029091DF02039758
:100C80001CF4E6E8F2E092C25FDC8091B8028F5F6C
:100C90008093B8028436A8F31092B80280E090E006
:100CA000812C912C5401C12CD12C76010F2EFFE305
:100CB0004F2EF2E45F2EFFE06F2E712CF02D1DA25F
:100CC0001EA21FA218A62FE332E44FE050E029A392
:100CD0003AA34BA35CA31D8E1E8E1F8E18A24BA69B
:100CE0005CA66DA67EA653C0FC01EE0FFF1FEE0FA3
:100CF000FF1FE150FD4F00811181228133814D8C16
:100D00005E8C6F8C78A0401651066206730620F444
:100D10000D8F1E8F2F8F38A349A05AA06BA07CA0E7
:100D2000041515052605370520F409A31AA32BA3DE
:100D30003CA3FC01EE0FFF1FEE0FFF1FE157FB4F1F
:100D400040815181628173814DA05EA06FA078A423
:100D5000441655066606770620F44DA35EA36FA3DE
:100D600078A74BA45CA46DA47EA444155505660524
:100D7000770520F44BA75CA76DA77EA7C00ED11EF8
:100D8000E21EF31E840E951EA61EB71E0196843623
:100D900091050CF4A9CF4BA45CA46DA47EA4EDE353
:100DA000F2E007C031968091C00085FFFCCF9093A0
:100DB000C60090819111F6CF8091BD029091BE0244
:100DC0002091BF023091C0023F932F939F938F9346
:100DD0001F9282E08F938BEA92E09F938F931F92F2
:100DE00084E18F938E010F5F1F4F1F930F9356D691
:100DF0000FB6F894DEBF0FBECDBFF80107C0319625
:100E00008091C00085FFFCCF9093C6009081911126
:100E1000F6CFE9E4F2E007C031968091C00085FF8B
:100E2000FCCF9093C60090819111F6CF4D8D5E8DD1
:100E30006F8D78A189A19AA1ABA1BCA1481B590BC8
:100E40006A0B7B0B4BA75CA76DA77EA77F936F9365
:100E50005F934F9380EB92E09F938F931F9284E177
:100E60008F938E010F5F1F4F1F930F9317D60FB6EF
:100E7000F894DEBF0FBECDBFF80107C03196809158
:100E8000C00085FFFCCF9093C60090819111F6CFF2
:100E9000E1E5F2E007C031968091C00085FFFCCF0C
:100EA0009093C60090819111F6CFC701B60124E658
:100EB00030E040E050E0A0D55F934F933F932F93F5
:100EC00080EB92E09F938F931F9284E18F938E012A
:100ED0000F5F1F4F1F930F93E1D50FB6F894DEBF3E
:100EE0000FBECDBFF80107C031968091C00085FFCD
:100EF000FCCF9093C60090819111F6CFE9E5F2E026
:100F000007C031968091C00085FFFCCF9093C6004A
:100F100090819111F6CF4DA15EA16FA178A54419E2
:100F20005509660977094FA758AB69AB7AAB7F9330
:100F30006F935F934F9380EB92E09F938F931F92F9
:100F400084E18F938E010F5F1F4F1F930F93A6D5E0
:100F50000FB6F894DEBF0FBECDBFF80107C03196C3
:100F60008091C00085FFFCCF9093C60090819111C5
:100F7000F6CFE2E6F2E007C031968091C00085FF2F
:100F8000FCCF9093C60090819111F6CFC501B401BA
:100F900024E630E040E050E02FD55F934F933F933D
:100FA0002F9380EB92E09F938F931F9284E18F9316
:100FB0008E010F5F1F4F1F930F9370D50FB6F894DC
:100FC000DEBF0FBECDBFF80107C031968091C000D3
:100FD00085FFFCCF9093C60090819111F6CF2D8DA7
:100FE0003E8D4F8D58A169A17AA18BA19CA162175A
:100FF00073078407950708F042C08DA19EA1AFA199
:10100000B8A5481659066A067B0608F03CC06BA5D1
:101010007CA58DA59EA5C4D36D8F7E8F8F8F98A341
:101020006FA578A989A99AA9BBD32B013C01C70157
:10103000B601B6D320E030E048EC52E418D36B019F
:101040007C01C501B401ACD320E030E048EC52E4AF
:101050000ED39B01AC01C301B20109D32B013C01AA
:10106000A70196016D8D7E8D8F8D98A100D39B0178
:10107000AC01C301B201FBD26B017C0107C0C12CE2
:10108000D12C760103C0C12CD12C7601EBE6F2E025
:1010900007C031968091C00085FFFCCF9093C600B9
:1010A00090819111F6CF20E030E04AE754E4C70187
:1010B000B6012CD444D3CB01770FAA0BBB0BBF9343
:1010C000AF939F938F9384EB92E09F938F931F92A4
:1010D00084E18F938E010F5F1F4F1F930F93DED418
:1010E0000FB6F894DEBF0FBECDBFF80107C0319632
:1010F0008091C00085FFFCCF9093C6009081911134
:10110000F6CFE3E7F2E007C031968091C00085FF9B
:10111000FCCF9093C60090819111F6CF20E030E093
:1011200048E851E4C701B601F1D39B01AC0160E08E
:1011300070E080ED92E432D29F938F937F936F9310
:101140001F9281E08F938BEA92E09F938F931F927F
:1011500084E18F938E010F5F1F4F1F930F939ED4D7
:101160000FB6F894DEBF0FBECDBFF80107C03196B1
:101170008091C00085FFFCCF9093C60090819111B3
:10118000F6CFEFE7F2E007C031968091C00085FF0F
:10119000FCCF9093C60090819111F6CF72CD31961D
:1011A0008091C00085FFFCCF9093C6009081911183
:1011B000F6CF8091D6029091D7022091D80230913B
:1011C000D9023F932F939F938F9380EB92E09F934D
:1011D0008F931F9284E18F938E010F5F1F4F1F9398
:1011E0000F935CD40FB6F894DEBF0FBECDBFF801ED
:1011F00007C031968091C00085FFFCCF9093C60058
:1012000090819111F6CFEAE8F2E007C03196809123
:10121000C00085FFFCCF9093C60090819111F6CF5E
:101220003F922F924AA44F9259A45F9280EB92E092
:101230009F938F931F9284E18F938E010F5F1F4FB7
:101240001F930F932BD40FB6F894DEBF0FBECDBF04
:10125000F80107C031968091C00085FFFCCF9093C4
:10126000C60090819111F6CFE0E9F2E007C0319617
:101270008091C00085FFFCCF9093C60090819111B2
:10128000F6CF8091E0029091E102181619068CF5D4
:10129000092E000CAA0BBB0BBF93AF939F938F93A8
:1012A00084EB92E09F938F931F9284E18F938E0142
:1012B0000F5F1F4F1F930F93F1D30FB6F894DEBF4C
:1012C0000FBECDBFF80107C031968091C00085FFE9
:1012D000FCCF9093C60090819111F6CFEBE9F2E03C
:1012E00015C031968091C00085FFFCCF9093C60059
:1012F00002C0E8E9F2E090819111F3CFEFCF31968F
:101300008091C00085FFFCCF9093C6009081911121
:10131000F6CFC090BD02D090BE02E090BF02F09028
:10132000C00220E030E04CE852E4C701B601EAD246
:1013300088230CF473C020E030E048EC52E4C7018D
:10134000B60191D118160CF469C0C701B601F7D1E6
:101350004B01770FAA08BB08C501B40123D29B013A
:10136000AC01C701B6011AD120E030E040E251E4FF
:10137000CDD2E5D16B017C01BF92AF929F928F924B
:1013800084EB92E09F938F931F9284E18F938E0161
:101390000F5F1F4F1F930F9381D30FB6F894DEBFDB
:1013A0000FBECDBFF80107C031968091C00085FF08
:1013B000FCCF9093C60090819111F6CF8091C00030
:1013C00085FFFCCF8EE28093C6000D2C000CEE084A
:1013D000FF08FF92EF92DF92CF9284EB92E09F930F
:1013E0008F931F9284E18F938E010F5F1F4F1F9386
:1013F0000F9354D30FB6F894DEBF0FBECDBFF801E4
:1014000007C031968091C00085FFFCCF9093C60045
:1014100090819111F6CFE2EAF2E04EC020E030E098
:10142000A901C701B6016ED21816CCF5C701B601E5
:1014300086D1CB01770FAA0BBB0BBF93AF939F93C2
:101440008F9384EB92E09F938F931F9284E18F930D
:101450008E010F5F1F4F1F930F9320D30FB6F89489
:10146000DEBF0FBECDBFF80107C031968091C0002E
:1014700085FFFCCF9093C60090819111F6CF8091AB
:10148000C00085FFFCCF81E28093C600C4CF3196B7
:101490008091C00085FFFCCF9093C60002C0E8E9B0
:1014A000F2E090819111F3CFB6CF31968091C000D8
:1014B00085FFFCCF9093C60090819111F6CF80916B
:1014C000DE029091DF02092E000CAA0BBB0BBF932A
:1014D000AF939F938F9384EB92E09F938F931F9290
:1014E00084E18F938E010F5F1F4F1F930F93D6D20E
:1014F0000FB6F894DEBF0FBECDBFF80107C031961E
:101500008091C00085FFFCCF9093C600908191111F
:10151000F6CFE5EAF2E007C031968091C00085FF82
:10152000FCCF9093C60090819111F6CF8091C202BA
:101530009091C302092E000CAA0BBB0BBF93AF9373
:101540009F938F9384EB92E09F938F931F9284E1FC
:101550008F938E010F5F1F4F1F930F939FD20FB674
:10156000F894DEBF0FBECDBFF80107C03196809161
:10157000C00085FFFCCF9093C60090819111F6CFFB
:10158000E7EAF2E007C031968091C00085FFFCCF0A
:101590009093C60090819111F6CFB3C95058BB27E4
:1015A000AA270ED075C166D130F06BD120F031F48E
:1015B0009F3F11F41EF45BC10EF4E095E7FB51C1AF
:1015C000E92F77D180F3BA1762077307840795076D
:1015D00018F071F49EF58FC10EF4E0950B2EBA2F22
:1015E000A02D0B01B90190010C01CA01A001112429
:1015F000FF27591B99F0593F50F4503E68F11A16D5
:10160000F040A22F232F342F4427585FF3CF469565
:1016100037952795A795F0405395C9F77EF41F1687
:10162000BA0B620B730B840BBAF09150A1F0FF0F51
:10163000BB1F661F771F881FC2F70EC0BA0F621F3D
:10164000731F841F48F4879577956795B795F7952D
:101650009E3F08F0B3CF9395880F08F09927EE0FBF
:10166000979587950895D9D008F481E008950CD016
:101670000FC107D140F0FED030F021F45F3F19F0E8
:10168000F0C0511139C1F3C014D198F39923C9F3B3
:101690005523B1F3951B550BBB27AA276217730778
:1016A000840738F09F5F5F4F220F331F441FAA1F2C
:1016B000A9F333D00E2E3AF0E0E830D091505040EC
:1016C000E695001CCAF729D0FE2F27D0660F771F9A
:1016D000881FBB1F261737074807AB07B0E809F07C
:1016E000BB0B802DBF01FF2793585F4F2AF09E3F11
:1016F000510568F0B6C000C15F3FECF3983EDCF3E3
:10170000869577956795B795F7959F5FC9F7880F89
:10171000911D9695879597F90895E1E0660F771FDB
:10172000881FBB1F621773078407BA0720F0621B6C
:10173000730B840BBA0BEE1F88F7E095089504D065
:101740006894B111D9C00895BCD088F09F5790F02B
:10175000B92F9927B751A0F0D1F0660F771F881FD6
:10176000991F1AF0BA95C9F712C0B13081F0C3D0F1
:10177000B1E00895C0C0672F782F8827B85F39F08F
:10178000B93FCCF3869577956795B395D9F73EF435
:1017900090958095709561957F4F8F4F9F4F0895DD
:1017A000E89409C097FB3EF49095809570956195FB
:1017B0007F4F8F4F9F4F9923A9F0F92F96E9BB27B1
:1017C0009395F695879577956795B795F111F8CF2D
:1017D000FAF4BB0F11F460FF1BC06F5F7F4F8F4F98
:1017E0009F4F16C0882311F096E911C0772321F08E
:1017F0009EE8872F762F05C0662371F096E8862F26
:1018000070E060E02AF09A95660F771F881FDAF77C
:10181000880F9695879597F90895990F0008550FA9
:10182000AA0BE0E8FEEF16161706E807F907C0F066
:1018300012161306E407F50798F0621B730B840B6E
:10184000950B39F40A2661F0232B242B252B21F448
:1018500008950A2609F4A140A6958FEF811D811DE8
:10186000089597F99F6780E870E060E008959FEF22
:1018700080EC089500240A94161617061806090627
:10188000089500240A9412161306140605060895F6
:10189000092E0394000C11F4882352F0BB0F40F47E
:1018A000BF2B11F460FF04C06F5F7F4F8F4F9F4FBE
:1018B000089557FD9058440F551F59F05F3F71F040
:1018C0004795880F97FB991F61F09F3F79F08795A7
:1018D0000895121613061406551FF2CF4695F1DF30
:1018E00008C0161617061806991FF1CF86957105C0
:1018F000610508940895E894BB2766277727CB01F4
:1019000097F908958ADF08F48FEF08950BD0C0CFC0
:10191000B1DF28F0B6DF18F0952309F0A2CFA7CFEA
:101920001124EACFC6DFA0F3959FD1F3950F50E0C5
:10193000551F629FF001729FBB27F00DB11D639F81
:10194000AA27F00DB11DAA1F649F6627B00DA11D27
:10195000661F829F2227B00DA11D621F739FB00DCD
:10196000A11D621F839FA00D611D221F749F33273D
:10197000A00D611D231F849F600D211D822F762FD6
:101980006A2F11249F5750408AF0E1F088234AF0D3
:10199000EE0FFF1FBB1F661F771F881F915050401F
:1019A000A9F79E3F510570F05CCFA6CF5F3FECF3E7
:1019B000983EDCF3869577956795B795F795E7950B
:1019C0009F5FC1F7FE2B880F911D9695879597F91C
:1019D000089597FB072E16F4009406D077FD08D0E3
:1019E00049D007FC05D03EF4909581959F4F08950E
:1019F000709561957F4F0895A1E21A2EAA1BBB1B1B
:101A0000FD010DC0AA1FBB1FEE1FFF1FA217B307CA
:101A1000E407F50720F0A21BB30BE40BF50B661FE0
:101A2000771F881F991F1A9469F7609570958095A4
:101A300090959B01AC01BD01CF010895052E97FB48
:101A400016F400940FD057FD05D0D6DF07FC02D066
:101A500046F408C050954095309521953F4F4F4F23
:101A60005F4F089590958095709561957F4F8F4F4A
:101A70009F4F0895AA1BBB1B51E107C0AA1FBB1FA4
:101A8000A617B70710F0A61BB70B881F991F5A950A
:101A9000A9F780959095BC01CD0108950F931F93F0
:101AA000CF93DF93CDB7DEB72E970FB6F894DEBF96
:101AB0000FBECDBF0E891F89888D998D26E02C839E
:101AC0001A83098397FF02C080E090E801979E8304
:101AD0008D83AE01445E5F4F6A8D7B8DCE01019692
:101AE00019D04D815E8157FD0AC02F81388542177C
:101AF00053070CF49A01F801E20FF31F10822E969F
:101B00000FB6F894DEBF0FBECDBFDF91CF911F910E
:101B10000F9108952F923F924F925F926F927F9212
:101B20008F929F92AF92BF92CF92DF92EF92FF92ED
:101B30000F931F93CF93DF93CDB7DEB72B970FB6DD
:101B4000F894DEBF0FBECDBF6C017B018A01FC01A2
:101B500017821682838181FFBFC1CE0101963C01AD
:101B6000F6019381F70193FD859193FF81917F01A8
:101B7000882309F4ADC1853239F493FD859193FF33
:101B800081917F01853221F4B60190E0D6D1E8CF72
:101B9000912C212C312CFFE1F315D8F08B3279F008
:101BA00038F4803279F08332A1F4232D20611DC0F6
:101BB0008D3261F0803369F4232D216016C0832DAE
:101BC0008260382EE32DE4603E2E2AC0F32DF860AB
:101BD0001DC037FC2DC020ED280F2A3040F08E327A
:101BE000B9F436FC75C1232D2064322E19C036FE9F
:101BF00006C08AE0989E200D1124922E11C0EAE0C2
:101C00002E9E200D1124222EF32DF0623F2E08C0AF
:101C10008C3621F4832D8068382E02C0883641F43A
:101C2000F70193FD859193FF81917F018111B3CFDE
:101C3000982F9F7D9554933028F40C5F1F4F9FE39E
:101C400099830DC0833631F0833771F0833509F005
:101C500055C020C0F801808189830E5F1F4F882402
:101C60008394912C530112C02801F2E04F0E511CB5
:101C7000F801A080B18036FE03C0692D70E002C07B
:101C80006FEF7FEFC5014ED14C018201F32DFF773D
:101C90003F2E15C0280122E0420E511CF801A08001
:101CA000B18036FE03C0692D70E002C06FEF7FEF98
:101CB000C5012DD14C01F32DF0683F2E820133FC7C
:101CC00019C0822D90E088169906A0F4B60180E232
:101CD00090E033D12A94F5CFF50137FC859137FE9A
:101CE00081915F01B60190E028D121102A9421E072
:101CF000821A91088114910479F7E1C0843611F0B9
:101D0000893639F5F80137FE07C06081718182811B
:101D100093810C5F1F4F08C060817181072E000CFA
:101D2000880B990B0E5F1F4FF32DFF763F2E97FF09
:101D300009C090958095709561957F4F8F4F9F4F0B
:101D4000F0683F2E2AE030E0A30133D1882E8618B8
:101D500044C0853731F4232D2F7EB22E2AE030E0A7
:101D600025C0932D997FB92E8F36C1F018F4883590
:101D700079F0AEC0803719F0883721F0A9C0E92F7B
:101D8000E061BE2EB4FE0DC0FB2DF460BF2E09C075
:101D900034FE0AC0292F2660B22E06C028E030E0AB
:101DA00005C020E130E002C020E132E0F801B7FEDA
:101DB00007C060817181828193810C5F1F4F06C0D3
:101DC0006081718180E090E00E5F1F4FA301F1D030
:101DD000882E8618FB2DFF773F2E36FE0DC0232D53
:101DE0002E7FA22E891458F434FE0BC032FC09C099
:101DF000832D8E7EA82E05C0B82CA32C03C0B82C32
:101E000001C0B92CA4FE0FC0FE01E80DF11D8081B8
:101E1000803321F49A2D997EA92E09C0A2FE06C016
:101E2000B394B39404C08A2D867809F0B394A3FCCC
:101E300010C0A0FE06C0B21480F4280C922C9B188F
:101E40000DC0B21458F4B60180E290E076D0B3949D
:101E5000F8CFB21418F42B1802C0982C212CA4FE31
:101E60000FC0B60180E390E068D0A2FE16C0A1FCCE
:101E700003C088E790E002C088E590E0B6010CC09E
:101E80008A2D867851F0A1FE02C08BE201C080E26B
:101E9000A7FC8DE2B60190E050D0891430F4B60171
:101EA00080E390E04AD09A94F8CF8A94F301E80D49
:101EB000F11D8081B60190E040D08110F6CF222044
:101EC00009F44ECEB60180E290E037D02A94F7CFE5
:101ED000F6018681978102C08FEF9FEF2B960FB698
:101EE000F894DEBF0FBECDBFDF91CF911F910F9150
:101EF000FF90EF90DF90CF90BF90AF909F908F902A
:101F00007F906F905F904F903F902F900895FC01CD
:101F10000590615070400110D8F7809590958E0F14
:101F20009F1F0895FC016150704001900110D8F787
:101F3000809590958E0F9F1F08950F931F93CF93B9
:101F4000DF93FB01238121FD03C08FEF9FEF2CC0A6
:101F500022FF16C0468157812481358142175307DD
:101F600044F4A081B1819D012F5F3F4F31832083D5
:101F70008C93268137812F5F3F4F3783268314C090
:101F80008B01EC01FB010084F185E02D1995892B73
:101F9000E1F6D80116968D919C91179701961796A8
:101FA0009C938E931697CE01DF91CF911F910F9145
:101FB0000895FA01AA27283051F1203181F1E894DF
:101FC0006F936E7F6E5F7F4F8F4F9F4FAF4FB1E02C
:101FD0003ED0B4E03CD0670F781F891F9A1FA11D27
:101FE000680F791F8A1F911DA11D6A0F711D811D28
:101FF000911DA11D20D009F468943F912AE0269FED
:1020000011243019305D3193DEF6CF010895462F4B
:102010004770405D4193B3E00FD0C9F7F6CF462F2C
:102020004F70405D4A3318F0495D31FD4052419395
:1020300002D0A9F7EACFB4E0A69597958795779552
:102040006795BA95C9F700976105710508959B01D9
:10205000AC010A2E06945795479537952795BA9562
:10206000C9F7620F731F841F951FA01D0895F89470
:02207000FFCFA0
:1020720053656E7A6F72206E656465746563746110
:1020820074200A0053656E7A6F72204F4B0D0A005E
:102092004173746570742064656765740D0A004647
:1020A200617261206465676574210D0A000D0A3E44
:1020B2003E3E2053704F323D002049525F41433D26
:1020C200002049525F44433D00205245445F414352
:1020D2003D00205245445F44433D002052617469F3
:1020E2006F3D002053704F325F63616C633D00208F
:1020F2003C3C3C0D0A0049523D00205245443D0003
:10210200207C2042504D3A002D2D002053704F323A
:102112003A00205B002C005D0D0A00252E2A660085
:08212200256C7500256C6400BA
:00000001FF
