:1000000071C000008FC000008DC000008BC00000D8
:1000100089C0000087C0000085C0000083C00000C8
:1000200081C000007FC000007DC000007BC00000D8
:1000300079C0000077C0000075C0000073C00000E8
:1000400071C000005FC300006DC000006BC0000005
:1000500069C0000067C0000065C0000063C0000008
:1000600061C000005FC000005DC000005BC0000018
:1000700059C0000057C0000055C0000053C0000028
:1000800051C000004FC000004DC000004BC0000038
:1000900049C0000047C0000045C0000043C0000048
:1000A00041C000003FC000003DC000003BC0000058
:1000B00039C0000037C0000035C0000033C0000068
:1000C00031C000002FC000002DC000002BC0000078
:1000D00029C0000027C0000025C0000023C0000088
:1000E00021C0000011241FBECFEFD1E2DEBFCDBF83
:1000F00000E00CBF12E0A0E0B2E0EAE7FCE100E0C3
:100100000BBF02C007900D92AE39B107D9F726E0B8
:10011000AEE9B2E001C01D92A430B207E1F73ED0D3
:100120000C943B0E6DCFECE7F0E08081806480831F
:10013000EAE7F0E08081876880830895ECE7F0E0EB
:100140009081907F892B808308951092C50080E173
:100150008093C40082E08093C00088E18093C10056
:1001600086E08093C20088E48093B8001092B900C2
:1001700084E08093BC00D7DFAED26DD012D0E0D047
:1001800080E092E0D1D02FEF83ED90E321508040CA
:100190009040E1F700C00000D3C00895D6DF80D4BE
:1001A000FECFC1DF80E0CADF81E0C8DF82E0C6CFDA
:1001B000089585B1826085B985E08A95F1F70000E0
:1001C00085B18D7F85B987EC90E00197F1F700C08C
:1001D0000000089580FF04C095B1946095B903C0F4
:1001E00095B19B7F95B981FF04C095B1986095B991
:1001F00003C095B1977F95B982FF06C0EBE0F1E0AF
:1002000090819160908305C0EBE0F1E090819E7F4A
:10021000908383FF06C0EBE0F1E080818260808301
:1002200005C0EBE0F1E080818D7F8083C2CF08952F
:10023000CF93C82F85B18E7F85B98C2F82958F7013
:10024000C9DF8C2FC7DF8FE891E00197F1F700C07D
:100250000000CF91089584B1816084B984B1826037
:1002600084B984B1846084B984B1886084B9EAE0D7
:10027000F1E080818160808380818260808385B1AC
:100280008E7F85B985B18D7F85B985B18B7F85B925
:1002900085B1877F85B9EBE0F1E080818E7F808337
:1002A00080818D7F808385B18E7F85B983E092DFE9
:1002B0008FE19EE40197F1F700C0000083E08ADF40
:1002C00087E592E00197F1F700C0000083E082DF4C
:1002D00087E592E00197F1F700C0000082E07ADF45
:1002E00087E592E00197F1F700C0000088E2A0DF07
:1002F0008CE09EDF86E09CDF81E09ACF0895CF936B
:10030000C82F85B1816085B98C2F82958F7062DF8F
:100310008C2F60DF8FE891E00197F1F700C00000BB
:10032000CF910895ECCF0895CF93DF93EC0102C0F5
:100330002196F8DF88818111FBCFDF91CF9108955D
:1003400081E076DF8FE19EE40197F1F700C00000C5
:1003500008958111605C862F80686ACF089594EAC1
:100360009093BC009091BC009923E4F79EEA90938F
:10037000BB0094E89093BC009091BC009923E4F7F3
:100380009091B900987F983121F084E98093BC0066
:1003900008958093BB0084E88093BC008091BC00EA
:1003A0008823E4F78091B900887F883221F084E9BE
:1003B0008093BC0008956093BB0084E88093BC00E8
:1003C0008091BC008823E4F78091B900887F88324F
:1003D00021F084E98093BC00089584E98093BC00F7
:1003E000089594EA9093BC009091BC009923E4F79F
:1003F0009EEA9093BB0094E89093BC009091BC005F
:100400009923E4F79091B900987F983129F084E915
:100410008093BC008FEF08958093BB0084E88093A5
:10042000BC008091BC008823E4F78091B900887FEC
:10043000883229F084E98093BC008FEF089584EA24
:100440008093BC008091BC008823E4F78FEA8093FE
:10045000BB0084E88093BC008091BC008823E4F753
:100460008091B900887F803429F084E98093BC00B2
:100470008FEF089584E88093BC008091BC008823AE
:10048000E4F78091BB0094E99093BC000895DC01EF
:1004900084EA8093BC008091BC008823E4F78EEA54
:1004A0008093BB0084E88093BC008091BC008823CB
:1004B000E4F78091B90087E08093BB0084E88093E3
:1004C000BC009091BC009923E4F78091B90084EAC4
:1004D0008093BC009091BC009923E4F78FEA80934D
:1004E000BB0084E88093BC009091BC009923E4F7A2
:1004F0008091B90020E025C0E22FF0E0462F50E0C7
:1005000041505109E417F50774F4FD01E20FF11DA4
:1005100084EC8093BC009091BC009923E4F7809117
:10052000BB0080830DC0FD01E20FF11D84E88093C4
:10053000BC009091BC009923E4F78091BB008083BC
:100540002F5F2617C8F284E98093BC0008958FEFCF
:1005500048DF91E0853109F090E0892F089560E44B
:1005600089E0FDDE2FEF81EE94E021508040904045
:10057000E1F700C000000895EADF811116C0E0E154
:10058000F2E007C031968091C00085FFFCCF9093C8
:10059000C60090819111F6CFFFCF31968091C000B7
:1005A00085FFFCCF9093C60002C0E4E2F2E09081A8
:1005B0009111F3CF089560E084E0D1DE60E085E042
:1005C000CEDE60E086E0CBCE0895FF920F931F93BE
:1005D000CF93DF93F82E162FD42FC22FC0DF612FB9
:1005E000606188E0BCDE63E089E0B9DE602F6D2BDE
:1005F0006C2B8AE0B4DE6F2D8CE0B1DE6F2D8DE0C8
:10060000AEDE61E281E1ABDE60E082E1A8DED3DF55
:10061000DF91CF911F910F91FF90089586E0E1CE79
:10062000089584E0DECE0895EF92FF920F931F931A
:10063000CF93DF9300D000D0CDB7DEB77C018B0124
:1006400066E0CE01019623DF898190E0A0E0B0E072
:10065000BC01552744279A81892F90E0A0E0B0E0A3
:10066000BA2FA92F982F8827842B952BA62BB72B31
:100670002B81822BA370BB27F70180839183A283F8
:10068000B3838C8190E0A0E0B0E0BC015527442703
:100690009D81892F90E0A0E0B0E0BA2FA92F982F7C
:1006A0008827842B952BA62BB72B2E81822BA3700A
:1006B000BB27F80180839183A283B38326960FB66C
:1006C000F894DEBF0FBECDBFDF91CF911F910F9188
:1006D000FF90EF9008958BE08093810089EF90E088
:1006E000909389008093880082E080936F007894D3
:1006F000089560919E0270919F028091A002909156
:10070000A10208951F920F920FB60F9211248F939A
:100710009F93AF93BF9380919E0290919F02A0916F
:10072000A002B091A1020196A11DB11D80939E026D
:1007300090939F02A093A002B093A102BF91AF91AA
:100740009F918F910F900FBE0F901F9018954F9211
:100750005F926F927F928F929F92AF92BF92CF9251
:10076000DF92EF92FF920F931F93CF93DF93CDB75A
:10077000DEB72C970FB6F894DEBF0FBECDBF80E07A
:1007800090E0C12CD12C7601812C912C54010F2E9C
:10079000FFE34F2EF2E45F2EFFE06F2E712CF02D61
:1007A0001D821E821F8218862FE332E44FE050E044
:1007B00029873A874B875C8719821A821B821C82A1
:1007C0004DC0FC01EE0FFF1FEE0FFF1FEC51FD4F60
:1007D000008111812281338149815A816B817C8121
:1007E000401751076207730720F409831A832B838C
:1007F0003C8349855A856B857C8504171507260738
:10080000370720F409871A872B873C87800E911EB3
:10081000A21EB31EFC01EE0FFF1FEE0FFF1FEC58D0
:10082000FB4F00811181228133814D815E816F8177
:100830007885401751076207730720F40D831E83E4
:100840002F833887041515052605370510F4280170
:100850003901C00ED11EE21EF31E019684369105A9
:100860000CF4AFCF69817A818B819C8129853A858F
:100870004B855C85621B730B840B950B67D5698375
:100880007A838B839C836D817E818F8198856419A7
:100890007509860997095AD52B013C01C501B40198
:1008A00055D520E030E048EC52E4B7D44B015C0170
:1008B000C701B6014BD520E030E048EC52E4ADD49E
:1008C0006B017C0120E030E0A901C501B401A1D495
:1008D000882309F46EC020E030E0A901C701B60109
:1008E00098D4882309F465C020E030E0A90169812B
:1008F0007A818B819C818DD4882309F45AC0A70109
:100900009601C301B20189D46B017C01A501940158
:1009100069817A818B819C8180D44B015C0120E0CC
:1009200030E0A90176D4882309F443C0A5019401DD
:10093000C701B60172D420E030E048E851E4BCD5EC
:100940009B01AC0160E070E080ED92E4FDD3609328
:10095000A2027093A3028093A4029093A50220E0C8
:1009600030E048EC52E4A4D5181664F480E090E03E
:10097000A8ECB2E48093A2029093A302A093A402F5
:10098000B093A5026091A2027091A3028091A4028B
:100990009091A50220E030E04CE852E43AD488235C
:1009A00044F41092A2021092A3021092A402109298
:1009B000A5022C960FB6F894DEBF0FBECDBFDF9117
:1009C000CF911F910F91FF90EF90DF90CF90BF904C
:1009D000AF909F908F907F906F905F904F90089511
:1009E0001092C7021092C8021092C9021092CA0255
:1009F0001092C6021092C5021092C4021092C30255
:100A00001092BF021092C0021092C1021092C20254
:100A10001092CB021092A2021092A3021092A40292
:100A20001092A5021092A8021092A7021092A6029C
:100A300080E006C0E82FF0E0E453FD4F10828F5FA6
:100A40008430C0F320E030E015C0C901880F991F41
:100A5000880F991FFC01EC51FD4F10821182128208
:100A60001382FC01EC58FB4F108211821282138218
:100A70002F5F3F4F2436310544F380E090E00CC0F7
:100A8000FC01EE0FFF1FEE0FFF1FE053FD4F108222
:100A90001182128213820196853091058CF308959C
:100AA000CF93DF93CDB7DEB7EE970FB6F894DEBFE6
:100AB0000FBECDBF61DD00E223E044E060E488E2E8
:100AC00084DD6FE18CE04BDC68E28DE048DC38DCF3
:100AD00060E080E03EDC82E592E026DC60E081E0E0
:100AE00038DC83E692E020DC2FEF47EA81E62150F4
:100AF00040408040E1F700C00000E0E3F2E007C0C2
:100B000031969091C00095FFFCCF8093C600808104
:100B10008111F6CF65DF82DD182F83DD181307C042
:100B20008FE99FE00197F1F700C00000F4CFBE010C
:100B3000695C7F4FCE01CB9677DD4FA958AD69AD8B
:100B40007AAD4093BB025093BC026093BD02709398
:100B5000BE02403593EC5907610571055CF440DF36
:100B60002FEF49E688E1215040408040E1F700C086
:100B70000000D1CF8091AD029091AE02FC01EE0F4A
:100B8000FF1FEE0FFF1FE053FD4F40835183628331
:100B90007383019665E070E0F2D49093AE02809387
:100BA000AD021092A9021092AA021092AB0210920A
:100BB000AC0280E090E020C0FC01EE0FFF1FEE0FC2
:100BC000FF1FE053FD4F408151816281738100918D
:100BD000A9021091AA022091AB023091AC02400F01
:100BE000511F621F731F4093A9025093AA02609382
:100BF000AB027093AC02019685309105ECF26091E6
:100C0000A9027091AA028091AB029091AC0225E0FA
:100C100030E040E050E0E8D469017A012093A90275
:100C20003093AA024093AB025093AC028091B7027A
:100C30009091B802A091B902B091BA02BA01A9018B
:100C4000481B590B6A0B7B0B4093B3025093B402C1
:100C50006093B5027093B6028091AF029091B0029A
:100C6000A091B102B091B2024597A105B1050CF473
:100C7000A3C04C3E5F4F6F4F7F4F0CF09DC021EAE9
:100C8000C21626E8D20621E0E206F1040CF494C074
:100C900030DD4B015C010091BF021091C002209138
:100CA000C1023091C202601B710B820B930B6B016E
:100CB0007C014FE5C41A41E0D40AE108F10845E699
:100CC000C41648E0D406E104F10408F06DC0012B1D
:100CD000022B032B09F468C039D39B01AC0160E0FF
:100CE00070E68AE697E499D26B017C016093C702B3
:100CF0007093C8028093C9029093CA0220E030E04A
:100D000040E252E4D5D388230CF44EC020E030E01A
:100D100044E353E4C701B6017CD218160CF444C076
:100D20000091CB0277247394700E10E0C701B601D6
:100D3000E1D2F801E453FD4F6083872D83708093E7
:100D4000CB021092C6021092C50280E060E070E013
:100D500014C0E82FF0E0E453FD4F9081992361F037
:100D60002091C5023091C602290F311D3093C60271
:100D70002093C5026F5F7F4F8F5F843050F316164C
:100D800017064CF48091C5029091C602F8D3709377
:100D9000C6026093C5028091C3029091C40201967D
:100DA0009093C4028093C3028092BF029092C002CB
:100DB000A092C102B092C2028091B3029091B4029B
:100DC000A091B502B091B6028093AF029093B002A9
:100DD000A093B102B093B2028091A9029091AA02AD
:100DE000A091AB02B091AC028093B7029093B8028D
:100DF000A093B902B093BA028091A7029091A80281
:100E00009C01220F331F220F331FF901EC51FD4FBC
:100E10004FA958AD69AD7AAD408351836283738326
:100E2000F901EC58FB4F4BAD5CAD6DAD7EAD408331
:100E300051836283738301969093A8028093A702E3
:100E4000843691053CF01092A8021092A70281E02E
:100E50008093A6028091A602882339F08091C30274
:100E60009091C40203970CF072DC8091C5029091BE
:100E7000C6021816190694F49F938F9384E792E0A4
:100E80009F938F93CE0186969F938F9319D40F9043
:100E90000F900F900F900F900F9009C081E1E2E545
:100EA000F2E0DE01969601900D928A95E1F760E0FE
:100EB00080E04FDACE01869637DAC090A202D09059
:100EC000A302E090A402F090A50220E030E04CE8FC
:100ED00052E4C701B601ECD288238CF120E030E067
:100EE00048EC52E4C701B60194D1181644F1C70189
:100EF000B601FBD14B015C01072E000C880B990B4E
:100F000027D29B01AC01C701B6011ED120E030E021
:100F100040E251E4D1D2E9D17F936F939F928F92B7
:100F200085E892E09F938F93CE0145969F938F9390
:100F3000C7D30FB6F894DEBF0FBECDBF09C081E1A5
:100F4000E3E6F2E0DE01559601900D928A95E1F715
:100F500060E081E0FED9CE014596E6D9EFE3F2E00C
:100F600007C031968091C00085FFFCCF9093C600EA
:100F700090819111F6CF8091C5029091C60218160A
:100F800019068CF5092E000CAA0BBB0BBF93AF936F
:100F90009F938F938AE992E09F938F931F9284E1AE
:100FA0008F938E010F5F1F4F1F930F934DD30FB67B
:100FB000F894DEBF0FBECDBFF80107C03196809117
:100FC000C00085FFFCCF9093C60090819111F6CFB1
:100FD000E7E4F2E015C031968091C00085FFFCCFB8
:100FE0009093C60002C0E4E4F2E090819111F3CF47
:100FF000EFCF31968091C00085FFFCCF9093C60063
:1010000090819111F6CFC090A202D090A302E090FF
:10101000A402F090A50220E030E04CE852E4C701C1
:10102000B60146D288230CF47BC020E030E048ECC7
:1010300052E4C701B601EDD018160CF474C0C70114
:10104000B60153D14B01770FAA08BB08C501B40103
:101050007FD19B01AC01C701B60176D020E030E022
:1010600040E251E429D241D16B017C01BF92AF92A1
:101070009F928F928AE992E09F938F931F9284E1CF
:101080008F938E010F5F1F4F1F930F93DDD20FB60B
:10109000F894DEBF0FBECDBFF80107C03196809136
:1010A000C00085FFFCCF9093C60090819111F6CFD0
:1010B0008091C00085FFFCCF8EE28093C6000D2C8E
:1010C000000CEE08FF08FF92EF92DF92CF928AE9C0
:1010D00092E09F938F931F9284E18F938E010F5F15
:1010E0001F4F1F930F93B0D20FB6F894DEBF0FBE01
:1010F000CDBFF80107C031968091C00085FFFCCFBD
:101100009093C60090819111F6CFEEE4F2E018C002
:1011100031968091C00085FFFCCF9093C60005C03A
:10112000E4E4F2E002C0E4E4F2E090819111F0CF57
:10113000ECCF31968091C00085FFFCCF9093C60024
:1011400090819111F6CFE7CC5058BB27AA270ED03B
:1011500075C166D130F06BD120F031F49F3F11F4AE
:101160001EF45BC10EF4E095E7FB51C1E92F77D186
:1011700080F3BA17620773078407950718F071F4B4
:101180009EF58FC10EF4E0950B2EBA2FA02D0B010A
:10119000B90190010C01CA01A0011124FF27591BBC
:1011A00099F0593F50F4503E68F11A16F040A22FC2
:1011B000232F342F4427585FF3CF46953795279533
:1011C000A795F0405395C9F77EF41F16BA0B620B32
:1011D000730B840BBAF09150A1F0FF0FBB1F661F79
:1011E000771F881FC2F70EC0BA0F621F731F841FBC
:1011F00048F4879577956795B795F7959E3F08F0E2
:10120000B3CF9395880F08F09927EE0F97958795A0
:101210000895D9D008F481E008950CD00FC107D10A
:1012200040F0FED030F021F45F3F19F0F0C05111D2
:1012300039C1F3C014D198F39923C9F35523B1F3FD
:10124000951B550BBB27AA2762177307840738F035
:101250009F5F5F4F220F331F441FAA1FA9F333D094
:101260000E2E3AF0E0E830D091505040E695001C48
:10127000CAF729D0FE2F27D0660F771F881FBB1F04
:10128000261737074807AB07B0E809F0BB0B802DDE
:10129000BF01FF2793585F4F2AF09E3F510568F02A
:1012A000B6C000C15F3FECF3983EDCF386957795BE
:1012B0006795B795F7959F5FC9F7880F911D96952C
:1012C000879597F90895E1E0660F771F881FBB1F88
:1012D000621773078407BA0720F0621B730B840B35
:1012E000BA0BEE1F88F7E095089504D06894B11109
:1012F000D9C00895BCD088F09F5790F0B92F992796
:10130000B751A0F0D1F0660F771F881F991F1AF010
:10131000BA95C9F712C0B13081F0C3D0B1E00895D9
:10132000C0C0672F782F8827B85F39F0B93FCCF35A
:10133000869577956795B395D9F73EF49095809506
:10134000709561957F4F8F4F9F4F0895E89409C026
:1013500097FB3EF490958095709561957F4F8F4FE8
:101360009F4F9923A9F0F92F96E9BB279395F695FE
:10137000879577956795B795F111F8CFFAF4BB0F7C
:1013800011F460FF1BC06F5F7F4F8F4F9F4F16C0E0
:10139000882311F096E911C0772321F09EE8872F6A
:1013A000762F05C0662371F096E8862F70E060E026
:1013B0002AF09A95660F771F881FDAF7880F96959F
:1013C000879597F90895990F0008550FAA0BE0E843
:1013D000FEEF16161706E807F907C0F012161306F7
:1013E000E407F50798F0621B730B840B950B39F437
:1013F0000A2661F0232B242B252B21F408950A269D
:1014000009F4A140A6958FEF811D811D089597F9DC
:101410009F6780E870E060E008959FEF80EC08959A
:1014200000240A94161617061806090608950024C3
:101430000A9412161306140605060895092E03943D
:10144000000C11F4882352F0BB0F40F4BF2B11F4B1
:1014500060FF04C06F5F7F4F8F4F9F4F089557FD10
:101460009058440F551F59F05F3F71F04795880F12
:1014700097FB991F61F09F3F79F0879508951216A9
:1014800013061406551FF2CF4695F1DF08C0161655
:1014900017061806991FF1CF869571056105089406
:1014A0000895E894BB2766277727CB0197F908951D
:1014B0008ADF08F48FEF08950BD0C0CFB1DF28F09A
:1014C000B6DF18F0952309F0A2CFA7CF1124EACFF9
:1014D000C6DFA0F3959FD1F3950F50E0551F629F93
:1014E000F001729FBB27F00DB11D639FAA27F00D7D
:1014F000B11DAA1F649F6627B00DA11D661F829FA4
:101500002227B00DA11D621F739FB00DA11D621F88
:10151000839FA00D611D221F749F3327A00D611DA5
:10152000231F849F600D211D822F762F6A2F112487
:101530009F5750408AF0E1F088234AF0EE0FFF1FDA
:10154000BB1F661F771F881F91505040A9F79E3F11
:10155000510570F05CCFA6CF5F3FECF3983EDCF313
:10156000869577956795B795F795E7959F5FC1F74E
:10157000FE2B880F911D9695879597F9089597FBF7
:10158000072E16F4009406D077FD08D049D007FC4A
:1015900005D03EF4909581959F4F08957095619583
:1015A0007F4F0895A1E21A2EAA1BBB1BFD010DC09F
:1015B000AA1FBB1FEE1FFF1FA217B307E407F50703
:1015C00020F0A21BB30BE40BF50B661F771F881FDF
:1015D000991F1A9469F760957095809590959B0175
:1015E000AC01BD01CF010895052E97FB16F40094C0
:1015F0000FD057FD05D0D6DF07FC02D046F408C057
:1016000050954095309521953F4F4F4F5F4F08952E
:1016100090958095709561957F4F8F4F9F4F08955E
:10162000AA1BBB1B51E107C0AA1FBB1FA617B70708
:1016300010F0A61BB70B881F991F5A95A9F7809524
:101640009095BC01CD0108950F931F93CF93DF9325
:10165000CDB7DEB72E970FB6F894DEBF0FBECDBF65
:101660000E891F89888D998D26E02C831A83098322
:1016700097FF02C080E090E801979E838D83AE01C2
:10168000445E5F4F6A8D7B8DCE01019647D04D81C0
:101690005E8157FD0AC02F813885421753070CF42D
:1016A0009A01F801E20FF31F10822E960FB6F894FC
:1016B000DEBF0FBECDBFDF91CF911F910F91089577
:1016C0000F931F93CF93DF93CDB7DEB72E970FB64F
:1016D000F894DEBF0FBECDBF0E891F8986E08C83D4
:1016E0001A8309838FEF9FE79E838D83AE01465E49
:1016F0005F4F688D798DCE01019610D0EF81F8850E
:10170000E00FF11F10822E960FB6F894DEBF0FBEC9
:10171000CDBFDF91CF911F910F9108952F923F92EE
:101720004F925F926F927F928F929F92AF92BF92F1
:10173000CF92DF92EF92FF920F931F93CF93DF939D
:10174000CDB7DEB72B970FB6F894DEBF0FBECDBF77
:101750006C017B018A01FC0117821682838181FF63
:10176000BFC1CE0101963C01F6019381F70193FDC3
:10177000859193FF81917F01882309F4ADC1853262
:1017800039F493FD859193FF81917F01853221F496
:10179000B60190E0D6D1E8CF912C212C312CFFE17D
:1017A000F315D8F08B3279F038F4803279F0833247
:1017B000A1F4232D20611DC08D3261F0803369F4C6
:1017C000232D216016C0832D8260382EE32DE46026
:1017D0003E2E2AC0F32DF8601DC037FC2DC020ED31
:1017E000280F2A3040F08E32B9F436FC75C1232D13
:1017F0002064322E19C036FE06C08AE0989E200D65
:101800001124922E11C0EAE02E9E200D1124222ECA
:10181000F32DF0623F2E08C08C3621F4832D8068B2
:10182000382E02C0883641F4F70193FD859193FF6D
:1018300081917F018111B3CF982F9F7D9554933073
:1018400028F40C5F1F4F9FE399830DC0833631F05E
:10185000833771F0833509F055C020C0F8018081CD
:1018600089830E5F1F4F88248394912C530112C0EB
:101870002801F2E04F0E511CF801A080B18036FE25
:1018800003C0692D70E002C06FEF7FEFC5014ED13C
:101890004C018201F32DFF773F2E15C0280122E075
:1018A000420E511CF801A080B18036FE03C0692DA4
:1018B00070E002C06FEF7FEFC5012DD14C01F32D19
:1018C000F0683F2E820133FC19C0822D90E088160B
:1018D0009906A0F4B60180E290E033D12A94F5CFC6
:1018E000F50137FC859137FE81915F01B60190E0EB
:1018F00028D121102A9421E0821A910881149104A0
:1019000079F7E1C0843611F0893639F5F80137FEF0
:1019100007C060817181828193810C5F1F4F08C075
:1019200060817181072E000C880B990B0E5F1F4F91
:10193000F32DFF763F2E97FF09C090958095709507
:1019400061957F4F8F4F9F4FF0683F2E2AE030E028
:10195000A30133D1882E861844C0853731F4232D56
:101960002F7EB22E2AE030E025C0932D997FB92E2C
:101970008F36C1F018F4883579F0AEC0803719F091
:10198000883721F0A9C0E92FE061BE2EB4FE0DC05A
:10199000FB2DF460BF2E09C034FE0AC0292F26603B
:1019A000B22E06C028E030E005C020E130E002C0E1
:1019B00020E132E0F801B7FE07C0608171818281C9
:1019C00093810C5F1F4F06C06081718180E090E0C1
:1019D0000E5F1F4FA301F1D0882E8618FB2DFF77D5
:1019E0003F2E36FE0DC0232D2E7FA22E891458F4D3
:1019F00034FE0BC032FC09C0832D8E7EA82E05C09C
:101A0000B82CA32C03C0B82C01C0B92CA4FE0FC065
:101A1000FE01E80DF11D8081803321F49A2D997E1D
:101A2000A92E09C0A2FE06C0B394B39404C08A2DA7
:101A3000867809F0B394A3FC10C0A0FE06C0B214CF
:101A400080F4280C922C9B180DC0B21458F4B601E7
:101A500080E290E076D0B394F8CFB21418F42B184B
:101A600002C0982C212CA4FE0FC0B60180E390E0A8
:101A700068D0A2FE16C0A1FC03C088E790E002C0B7
:101A800088E590E0B6010CC08A2D867851F0A1FE61
:101A900002C08BE201C080E2A7FC8DE2B60190E0BB
:101AA00050D0891430F4B60180E390E04AD09A9483
:101AB000F8CF8A94F301E80DF11D8081B60190E022
:101AC00040D08110F6CF222009F44ECEB60180E23C
:101AD00090E037D02A94F7CFF6018681978102C033
:101AE0008FEF9FEF2B960FB6F894DEBF0FBECDBFE2
:101AF000DF91CF911F910F91FF90EF90DF90CF90EA
:101B0000BF90AF909F908F907F906F905F904F901D
:101B10003F902F900895FC01059061507040011096
:101B2000D8F7809590958E0F9F1F0895FC01615006
:101B3000704001900110D8F7809590958E0F9F1FEF
:101B400008950F931F93CF93DF93FB01238121FD12
:101B500003C08FEF9FEF2CC022FF16C04681578134
:101B6000248135814217530744F4A081B1819D013E
:101B70002F5F3F4F318320838C93268137812F5FE6
:101B80003F4F3783268314C08B01EC01FB01008497
:101B9000F185E02D1995892BE1F6D80116968D91E6
:101BA0009C911797019617969C938E931697CE014A
:101BB000DF91CF911F910F910895FA01AA27283044
:101BC00051F1203181F1E8946F936E7F6E5F7F4F0A
:101BD0008F4F9F4FAF4FB1E03ED0B4E03CD0670F86
:101BE000781F891F9A1FA11D680F791F8A1F911DD9
:101BF000A11D6A0F711D811D911DA11D20D009F429
:101C000068943F912AE0269F11243019305D31936A
:101C1000DEF6CF010895462F4770405D4193B3E053
:101C20000FD0C9F7F6CF462F4F70405D4A3318F0FA
:101C3000495D31FD4052419302D0A9F7EACFB4E0AB
:101C4000A6959795879577956795BA95C9F7009763
:101C50006105710508959B01AC010A2E0694579504
:101C6000479537952795BA95C9F7620F731F841F5B
:0A1C7000951FA01D0895F894FFCF02
:101C7A00496E697469616C697A6172652E2E2E00EB
:101C8A0053656E7A6F72206E6564657465637461FC
:101C9A0074200A0053656E7A6F72204F4B0D0A004A
:101CAA004173746570742064656765740D0A004237
:101CBA00504D3A002D2D002053704F323A00250D19
:101CCA000A0042504D3A202D2D202020202020208D
:101CDA0020200053704F323A202D2D202020202022
:101CEA002020200042504D3A202533642020202015
:101CFA00202020200053704F323A202532642E25AE
:0E1D0A0031642525202020202000256C640057
:00000001FF
