S01900004D756C74696D657472755369656D656E732E73726563FF
S113000071C000008FC000008DC000008BC00000D4
S113001089C0000087C0000085C0000083C00000C4
S113002081C000007FC000007DC000007BC00000D4
S113003079C0000077C0000075C0000073C00000E4
S113004071C000005BC600006DC000006BC0000002
S113005069C0000067C0000065C0000063C0000004
S113006061C000005FC000005DC000005BC0000014
S113007059C0000057C0000055C0000053C0000024
S113008051C000004FC000004DC000004BC0000034
S113009049C0000047C0000045C0000043C0000044
S11300A041C000003FC000003DC000003BC0000054
S11300B039C0000037C0000035C0000033C0000064
S11300C031C000002FC000002DC000002BC0000074
S11300D029C0000027C0000025C0000023C0000084
S11300E021C0000011241FBECFEFD1E2DEBFCDBF7F
S11300F000E00CBF12E0A0E0B2E0ECEEF1E100E0C1
S11301000BBF02C007900D92A23EB107D9F723E0BE
S1130110A2EEB2E001C01D92A634B207E1F7FED010
S11301200C94F4086DCFECE7F0E080818064808368
S1130130EAE7F0E08081876880830895ECE7F0E0E7
S11301409081907F892B80830895CF93DF93CDB7DF
S1130150DEB76F970FB6F894DEBF0FBECDBF109217
S1130160C50080E18093C40082E08093C00088E1F0
S11301708093C10086E08093C20088E48093B80035
S11301801092B90084E08093BC00AAD5C7D479D377
S113019059D49ED581B1816081B982B18E7F82B9F3
S11301A088E092E024D52FEF37EA81E621503040F1
S11301B08040E1F700C0000026D560E080E02CD547
S11301C088E192E014D59FEF21EE34E09150204075
S11301D03040E1F700C000005CD3882349F1CE0130
S11301E04296EDD361E080E017D581E1E8E5F2E0E5
S11301F0DE01119601900D928A95E1F76A897B8957
S11302008C899D8971D6CB01992314F480E090E008
S11302108436910514F083E690E06AE070E0AED78E
S1130220605D6887805D8987CE010196E0D406C051
S113023061E080E0F1D485E292E0D9D48FEF93E2DB
S113024024EF815090402040E1F700C00000DBD44F
S113025060E080E0E1D486E392E0C9D460E081E02C
S1130260DBD487E492E0C3D43AEA86EE96E921E04F
S11302703150804090402040D9F70000C4D46F969C
S11302800FB6F894DEBF0FBECDBFDF91CF910895B6
S1130290CF93DF93CDB7DEB7A2970FB6F894DEBF46
S11302A00FBECDBF21E1EDE9F2E0DE011196019030
S11302B00D922A95E1F721E1E8E5F2E0DE0152969C
S11302C001900D922A95E1F70FD6862F972F8A3049
S11302D091052CF480E3898F605D6A8F0AC08436AF
S11302E091053CF46AE070E049D7605D698F805DF8
S11302F08A8F60E080E090D4CE01019678D461E0EA
S113030080E08AD4CE01429672D4A2960FB6F894B5
S1130310DEBF0FBECDBFDF91CF910895CF93DF93A2
S1130320CDB7DEB7C354D3400FB6F894DEBF0FBECB
S1130330CDBF0BDF68D460E080E06ED48DE992E03D
S113034056D461E080E068D488E592E050D42FEF81
S113035031EE84E0215030408040E1F700C00000DD
S113036082B1816082B99FEF23EC39E09150204043
S11303703040E1F700C00000D1D345D460E080E014
S11303804BD48DE992E033D461E080E045D488E534
S113039092E02DD400E010E0912CA12CB12CC12CC2
S11303A044C0CE018F5D9C4F0AD3CF5DDC4F988053
S11303B0C152D340CE5DDC4FA880C252D340CD5D44
S11303C0DC4FB880C352D340CC5DDC4FC880C452EC
S11303D0D3409801ADECBCECE4D6929582958F7035
S11303E089279F70892744E1489F9001499F300DD8
S11303F011240217130771F4692D7A2D8B2D9C2D6E
S113040047DF8FEF90E722E0815090402040E1F7F2
S113041000C000000F5F1F4F3FEF81EE94E03150AA
S113042080409040E1F700C0000020E030E040EC64
S113043051E4692D7A2D8B2D9C2DEAD488230CF45C
S1130440B0CF82B18E7F82B92FEF39E688E1215097
S113045030408040E1F700C0000060D3D4D360E0B6
S113046080E0DAD38EEA92E0C2D361E080E0D4D3B4
S113047088E592E0BCD300E010E0412C312C212C23
S1130480CD5BDC4F1882C354D340D12CEBC0CE01DA
S11304908E5C9C4F94D2CE5CDC4F8880C253D34098
S11304A0CD5CDC4F7880C353D340CC5CDC4F688098
S11304B0C453D340CB5CDC4F5880C553D340ED2CA0
S11304C0F12CF701EE0FFF1FEE0FFF1F21E030E0CC
S11304D02C0F3D1FE20FF31F882D972DA62DB52D50
S11304E080839183A283B383DD2089F1292D3A2D62
S11304F04B2D5C2D682D772D862D952D24D4F4D489
S113050028EE33E0269FA001279F500D369F500D03
S1130510112455231CF4519541955109BA01550FE5
S1130520880B990B14D5A62EB72EC82E992E262FDC
S1130530372F482F592F642D732D822DCD5BDC4F1F
S11305409881C354D34064D4882334F00DC0A12CC3
S1130550B12CC12C912C08C04A2C3B2C2C2CCD5BEB
S1130560DC4F9882C354D340EE0CFF1CEE0CFF1CEE
S1130570E1E9F1E0EC0FFD1FEE0DFF1D8A2D9B2D2F
S1130580AC2DB92D80839183A283B3839801ADEC04
S1130590BCEC07D6969587959695879596958795FD
S11305A09C01220F331F880F991F880F991F880FF2
S11305B0991F820F931F0817190709F043C081E19F
S11305C0E8E5F2E0DE01AF5DBC4F01900D928A9543
S11305D0E1F7682D772D862D952D86D4862F972FBC
S11305E08A3091056CF480E3C85DDC4F8883C8527F
S11305F0D340605DC75DDC4F6883C952D34012C0ED
S1130600843691057CF46AE070E0B8D5605DC85D1D
S1130610DC4F6883C852D340805DC75DDC4F88835C
S1130620C952D34061E080E0F7D2CE018F5D9C4F88
S1130630DED23FEF80E792E0315080409040E1F716
S113064000C00000D3940F5F1F4F2FEF31EE84E002
S1130650215030408040E1F700C00000982CA72CC6
S1130660B62CC52C20E030E0A901692D7A2D8B2D04
S11306709C2D1DD5181624F493E69D1508F007CF7C
S11306802AE02D1538F17BC0EE0FFF1FEE0FFF1F80
S113069081E991E08C0F9D1FE80FF91FF080018123
S11306A0E280C3802F2D302F4E2D5C2D672D762DAB
S11306B0852D942DADD388235CF4612F70E080E008
S11306C090E043D44B015C017F2C602E5E2C4C2CBB
S11306D01F5F08C015E0812C912C5401712C612CF2
S11306E0512C412CE12FF0E08D2D90E00597E81777
S11306F0F90754F2C501B401FCD3E62FF0E0EE0F84
S1130700FF1FEE0FFF1F21E030E02C0F3D1FE20F13
S1130710F31F80819181A281B3818093E20290933F
S1130720E302A093E402B093E5026091E2027091C7
S1130730E3028091E4029091E50220E030E040E79A
S113074051E402D36093EA027093EB028093EC02CB
S11307509093ED026091E2027091E3028091E402D1
S11307609091E50220E030E040E251E4ECD2609365
S1130770E6027093E7028093E8029093E90243D281
S113078060E080E049D281E1EFEBF2E0DE01AE5CB3
S1130790BC4F01900D928A95E1F76091EA02709145
S11307A0EB028091EC029091ED029ED39B010F2EFF
S11307B0F4E6EF2EF12CF02DCB01B701DFD4605D10
S11307C0CA5CDC4F6883C653D3400AE010E0C90119
S11307D0B801D4D4282FCB01B801D0D4805DC95C32
S11307E0DC4F8883C753D340205DC85CDC4F28832B
S11307F0C853D340CE018E5C9C4FF9D161E080E0B8
S11308000BD281E1E0EDF2E0DE01AF5DBC4F01907F
S11308100D928A95E1F76091E6027091E70280916A
S1130820E8029091E90260D39B01CB01B701A6D401
S1130830605DCB5DDC4F6883C552D340C901B8010C
S11308409DD4282FCB01B80199D4805DCA5DDC4FBB
S11308508883C652D340205DC95DDC4F2883C752CC
S1130860D340CE018F5D9C4FC2D13FEF83EB94EC1C
S113087024E03150804090402040D9F700C000006F
S113088059CD51DC80E05ADC81E058DC82E056CC62
S1130890089580B1869591E0892781700895019922
S11308A0FECF90E040E050E0BA0119C082B184600C
S11308B082B985E08A95F1F70000440F551F661F41
S11308C0771F019B04C04F5F5F4F6F4F7F4F82B113
S11308D08B7F82B985E08A95F1F700009F5F98319C
S11308E028F382B1846082B985E08A95F1F700002B
S11308F082B18B7F82B985E08A95F1F7000067FDAC
S11309007F6FCB01BA010895CF92DF92EF92FF92ED
S1130910C0900402D0900502E0900602F090070215
S11309206C197D098E099F0912D3DED29B017723AE
S113093024F422273327261B370BB901330F880BE6
S1130940990B05D320E03BE640E858E465D22091BA
S11309500002309101024091020250910302ABD394
S11309606B017C0120E030E040E252E4A0D3181691
S113097044F40F2EC12CD12CF0E2EF2EF2E4FF2E22
S1130980F02D20E030E0A901C701B60141D288234F
S11309901CF4C12CD12C7601C701B601FF90EF9055
S11309A0DF90CF90089524E135E040EF50E483C315
S11309B0089527ED34E844E15EE37DC30895CF92C2
S11309C0DF92EF92FF92CF93DF93EC0168DFC72EA3
S11309D0D82EE92EFF24E7FCFA94DD86CC8694DF3A
S11309E06B017C01688379838A839B83DCDF6C835E
S11309F07D838E839F83C701B601DBDF6887798798
S1130A008A879B87DF91CF91FF90EF90DF90CF9003
S1130A100895DC0198961C92989799961C92999740
S1130A2090E00DC0E92FF0E0EE0FFF1FEE0FFF1F67
S1130A30EA0FFB1F10821182128213829F5F9A3089
S1130A4088F3089581B1846081B982B18B7F82B9C2
S1130A5081B18D7F81B988E193E0DBDF8EEE92E096
S1130A60D8DF2FEF81EE94E0215080409040E1F7F1
S1130A7000C0000081E0089585B1826085B985E0F9
S1130A808A95F1F7000085B18D7F85B987EC90E0F8
S1130A900197F1F700C00000089580FF04C095B1EC
S1130AA0946095B903C095B19B7F95B981FF04C04B
S1130AB095B1986095B903C095B1977F95B982FFB8
S1130AC006C0EBE0F1E090819160908305C0EBE01B
S1130AD0F1E090819E7F908383FF06C0EBE0F1E01C
S1130AE080818260808305C0EBE0F1E080818D7FAE
S1130AF08083C2CF0895CF93C82F85B18E7F85B9E7
S1130B008C2F82958F70C9DF8C2FC7DF8FE891E01F
S1130B100197F1F700C00000CF91089584B181607E
S1130B2084B984B1826084B984B1846084B984B1A5
S1130B30886084B9EAE0F1E080818160808380810B
S1130B408260808385B18E7F85B985B18D7F85B9BB
S1130B5085B18B7F85B985B1877F85B9EBE0F1E0FD
S1130B6080818E7F808380818D7F808385B18E7F1D
S1130B7085B983E092DF8FE19EE40197F1F700C02D
S1130B80000083E08ADF87E592E00197F1F700C077
S1130B90000083E082DF87E592E00197F1F700C06F
S1130BA0000082E07ADF87E592E00197F1F700C068
S1130BB0000088E2A0DF8CE09EDF86E09CDF81E01D
S1130BC09ACF0895CF93C82F85B1816085B98C2FB2
S1130BD082958F7062DF8C2F60DF8FE891E0019740
S1130BE0F1F700C00000CF910895ECCF0895CF93A2
S1130BF0DF93EC0102C02196F8DF88818111FBCFDD
S1130C00DF91CF91089581E076DF8FE19EE4019733
S1130C10F1F700C0000008958111605C862F8068A0
S1130C206ACF089594EA9093BC009091BC009923F4
S1130C30E4F79EEA9093BB0094E89093BC009091F3
S1130C40BC009923E4F79091B900987F983129F07A
S1130C5084E98093BC008FEF08958093BB0084E8FF
S1130C608093BC008091BC008823E4F78091B90094
S1130C70887F883229F084E98093BC008FEF08953F
S1130C8084EA8093BC008091BC008823E4F78FEA57
S1130C908093BB0084E88093BC008091BC008823CF
S1130CA0E4F78091B900887F803429F084E9809347
S1130CB0BC008FEF089584E88093BC008091BC0051
S1130CC08823E4F78091BB0094E99093BC000895D5
S1130CD08FEFA8DF91E0853109F090E0892F089526
S1130CE08BE08093810089EF90E09093890080935A
S1130CF0880082E080936F00789408951F920F9289
S1130D000FB60F9211248F939F93AF93BF9380914B
S1130D10420390914303A0914403B091450301968B
S1130D20A11DB11D8093420390934303A0934403F8
S1130D30B0934503BF91AF919F918F910F900FBED8
S1130D400F901F9018955058BB27AA270ED075C135
S1130D5066D130F06BD120F031F49F3F11F41EF4D2
S1130D605BC10EF4E095E7FB51C1E92F77D180F325
S1130D70BA17620773078407950718F071F49EF594
S1130D808FC10EF4E0950B2EBA2FA02D0B01B901E3
S1130D9090010C01CA01A0011124FF27591B99F0ED
S1130DA0593F50F4503E68F11A16F040A22F232FF9
S1130DB0342F4427585FF3CF469537952795A79549
S1130DC0F0405395C9F77EF41F16BA0B620B730BF0
S1130DD0840BBAF09150A1F0FF0FBB1F661F771F61
S1130DE0881FC2F70EC0BA0F621F731F841F48F416
S1130DF0879577956795B795F7959E3F08F0B3CF9C
S1130E009395880F08F09927EE0F97958795089585
S1130E10D9D008F481E008950CD00FC107D140F077
S1130E20FED030F021F45F3F19F0F0C0511139C108
S1130E30F3C014D198F39923C9F35523B1F3951B47
S1130E40550BBB27AA2762177307840738F09F5FE7
S1130E505F4F220F331F441FAA1FA9F333D00E2E56
S1130E603AF0E0E830D091505040E695001CCAF7C3
S1130E7029D0FE2F27D0660F771F881FBB1F261788
S1130E8037074807AB07B0E809F0BB0B802DBF015B
S1130E90FF2793585F4F2AF09E3F510568F0B6C074
S1130EA000C15F3FECF3983EDCF386957795679538
S1130EB0B795F7959F5FC9F7880F911D969587950C
S1130EC097F90895E1E0660F771F881FBB1F62172B
S1130ED073078407BA0720F0621B730B840BBA0BE9
S1130EE0EE1F88F7E095089504D06894B111D9C035
S1130EF00895BCD088F09F5790F0B92F9927B75127
S1130F00A0F0D1F0660F771F881F991F1AF0BA95C9
S1130F10C9F712C0B13081F0C3D0B1E00895C0C0A8
S1130F20672F782F8827B85F39F0B93FCCF38695BF
S1130F3077956795B395D9F73EF49095809570951C
S1130F4061957F4F8F4F9F4F0895E89409C097FB99
S1130F503EF490958095709561957F4F8F4F9F4F8C
S1130F609923A9F0F92F96E9BB279395F6958795D0
S1130F7077956795B795F111F8CFFAF4BB0F11F493
S1130F8060FF1BC06F5F7F4F8F4F9F4F16C088233A
S1130F9011F096E911C0772321F09EE8872F762F70
S1130FA005C0662371F096E8862F70E060E02AF0B1
S1130FB09A95660F771F881FDAF7880F969587959D
S1130FC097F90895990F0008550FAA0BE0E8FEEF72
S1130FD016161706E807F907C0F012161306E407F9
S1130FE0F50798F0621B730B840B950B39F40A26F2
S1130FF061F0232B242B252B21F408950A2609F4D0
S1131000A140A6958FEF811D811D089597F99F67D3
S113101080E870E060E008959FEF80EC089500247C
S11310200A941616170618060906089500240A9449
S113103012161306140605060895092E0394000CCF
S113104011F4882352F0BB0F40F4BF2B11F460FF5E
S113105004C06F5F7F4F8F4F9F4F089557FD905887
S1131060440F551F59F05F3F71F04795880F97FB68
S1131070991F61F09F3F79F0879508951216130622
S11310801406551FF2CF4695F1DF08C01616170651
S11310901806991FF1CF8695710561050894089586
S11310A0E894BB2766277727CB0197F908958ADF51
S11310B008F48FEF08950BD0C0CFB1DF28F0B6DF6E
S11310C018F0952309F0A2CFA7CF1124EACFC6DFE9
S11310D0A0F3959FD1F3950F50E0551F629FF00147
S11310E0729FBB27F00DB11D639FAA27F00DB11DA0
S11310F0AA1F649F6627B00DA11D661F829F222729
S1131100B00DA11D621F739FB00DA11D621F839FAF
S1131110A00D611D221F749F3327A00D611D231F85
S1131120849F600D211D822F762F6A2F11249F57D3
S113113050408AF0E1F088234AF0EE0FFF1FBB1FF6
S1131140661F771F881F91505040A9F79E3F510595
S113115070F05CCFA6CF5F3FECF3983EDCF386954E
S113116077956795B795F795E7959F5FC1F7FE2B40
S1131170880F911D9695879597F9089597FB072EEB
S113118016F4009406D077FD08D01AD007FC05D0D9
S11311903EF4909581959F4F0895709561957F4F8A
S11311A00895A29FB001B39FC001A39F700D811D3C
S11311B01124911DB29F700D811D1124911D08955C
S11311C0AA1BBB1B51E107C0AA1FBB1FA617B70769
S11311D010F0A61BB70B881F991F5A95A9F7809585
S10F11E09095BC01CD010895F894FFCF58
S11311EC0000803FFFFF7F00694E495449616C69E0
S11311FC7A6172652E2E2E0054657374204858370C
S113120C3130423A0053656E736F72206E6F7420E6
S113121C7265616479004250204D6F6E69746F720F
S113122C202020202020005374617274696E672082
S113123C696E20313073200050726573733A20301C
S113124C30206B5061202020004C6F772020202010
S113125C20004E6F726D616C202000456C657661C8
S113126C7465640048696768202020200053595332
S113127C3A253364204449413A25336400496E6667
S113128C6C6174696E672020202020202000446546
S113129C666C6174696E6720202020202020005326
S11312AC59533A303030206D6D486720202020008F
S11312BC4449413A303030206D6D4867202020205D
S10512CC00001C
S9030000FC
